:1000000000800020BD010000D93F0000A53F000096
:10001000A53F0000A53F0000A53F0000A53F000050
:10002000A53F0000A53F0000A53F0000D93F00000C
:10003000D93F0000A53F0000D93F0000953F0000D8
:10004000D93F0000D93F0000D93F0000D93F000050
:10005000D93F0000D93F0000D93F0000D93F000040
:10006000D93F0000D93F0000D93F0000D93F000030
:10007000D93F0000D93F0000D93F0000D93F000020
:10008000D93F0000D93F0000D93F0000D93F000010
:10009000D93F0000D93F0000D93F0000D93F000000
:1000A000D93F0000D93F0000D93F0000D93F0000F0
:1000B000D93F0000D93F0000D93F0000D93F0000E0
:1000C000D93F0000D93F0000D93F0000D93F0000D0
:1000D000D93F0000D93F0000D93F0000D93F0000C0
:1000E000D93F0000D93F0000D93F0000D93F0000B0
:1000F000D93F0000F52D0000D93F0000413C000031
:10010000D93F000055280000D93F0000D93F00002A
:10011000D93F0000D93F0000D93F0000D93F00007F
:10012000D93F0000D93F0000D93F0000D93F00006F
:10013000D93F0000D93F0000D93F0000D93F00005F
:10014000D93F0000D93F0000D93F0000D93F00004F
:1001500091450000A9450000C1450000D9450000B7
:10016000D93F00009D300000D93F0000D93F00007A
:10017000D93F0000D93F0000D93F0000D93F00001F
:10018000D93F0000D93F0000D93F0000D93F00000F
:10019000D93F0000D93F0000D93F0000D93F0000FF
:1001A000D93F0000D93F0000D93F0000D93F0000EF
:1001B000D93F0000D93F0000F9440000564B4CF2F3
:1001C000205210B51A804DF628121A8000BF00BFC9
:1001D00003F006FF514B4FF010621A60504A9A60CC
:1001E000504ADA60A3F53043203B1A6812F480725B
:1001F00004D14D490A604FF4A8521A604B4B1A784B
:10020000110703D51A7842F008021A70484B2A22C7
:100210001A700023474A48499818884204D247492F
:10022000595899500433F5E7454A464B9A424FF0E6
:10023000000302D242F8043BF7E74349434A5958C6
:1002400099500433B3F5DE7FF7D1414B802103F899
:10025000011B40498B42F9D13F4B1A603F4B0A22A8
:100260001A70A3F5805324225A70A0221A709A792A
:100270009207FCD59A79D406FCD4394B9A7902F0CE
:100280000C02082AF9D103221A7140225A719A7974
:100290009006FCD5324B9A795106FBD5314A32494A
:1002A00011600221516020221A702D4B9B7903F0BE
:1002B0000C030C2BF9D12D4B2D4A1A602D4B45F612
:1002C000BF521A6000225A60072243F8042C2A4ABF
:1002D000C3F80C2D62B603F0B3FD134B1B68DA07AD
:1002E00005D5264803F020FD254B264A1A60264BEB
:1002F0001B785B0609D5224C224A2368934204D11D
:100300001E4803F011FD0023236004F033FA03F0CC
:100310006DFE02F0CFF8FEE70E200540308004406D
:10032000823F04000100002B14D0034002D007409C
:1003300000E00740C08AFF1F5495FF1F485A000085
:100340005495FF1F6099FF1F000000000082FF1FEF
:1003500000E400E05FE400E008ED00E0005006404B
:100360000040064044800440000003330480044001
:10037000C010050014E000E0000020203B1F4A6090
:100380001CE00340A5C3945A00F00740FFFFFFFFA5
:10039000FFFFFFFFFFFFFFFFFFFFFFFFFFFFFFFF6D
:1003A000FFFFFFFFFFFFFFFFFFFFFFFFFFFFFFFF5D
:1003B000FFFFFFFFFFFFFFFFFFFFFFFFFFFFFFFF4D
:1003C000FFFFFFFFFFFFFFFFFFFFFFFFFFFFFFFF3D
:1003D000FFFFFFFFFFFFFFFFFFFFFFFFFFFFFFFF2D
:1003E000FFFFFFFFFFFFFFFFFFFFFFFFFFFFFFFF1D
:1003F000FFFFFFFFFFFFFFFFFFFFFFFFFFFFFFFF0D
:10040000FFFFFFFFFFFFFFFFFFFFFFFFFEFFFFFFFD
:1004100010B5054C237833B9044B13B10448AFF33E
:1004200000800123237010BD5495FF1F00000000C1
:10043000485A000008B5064B1BB106480649AFF301
:1004400000800648036813B1054B03B1984708BD07
:1004500000000000485A00005895FF1F5495FF1FE8
:10046000000000000139C9B2572900F29F804F29CE
:100470004F4B0CD95039012000FA01F112B19A7A90
:10048000114302E09A7A22EA0101997289E0472930
:100490004FF001000BD9483900FA01F112B15A7A34
:1004A000114302E05A7A22EA0101597279E03F29A8
:1004B0000BD9403900FA01F112B11A7A114302E066
:1004C0001A7A22EA010119726BE037290BD93839FF
:1004D00000FA01F112B1DA79114302E0DA7922EA85
:1004E0000101D9715DE02F290BD9303900FA01F1F2
:1004F00012B19A79114302E09A7922EA01019971C5
:100500004FE027290BD9283900FA01F112B15A79A5
:10051000114302E05A7922EA0101597141E01F2991
:100520000BD9203900FA01F112B11A79114302E016
:100530001A7922EA0101197133E017290BD9183908
:1005400000FA01F112B1DA78114302E0DA7822EA16
:100550000101D97025E00F290BD9103900FA01F1FA
:1005600012B19A78114302E09A7822EA0101997057
:1005700017E007290BD9083900FA01F112B15A78AE
:10058000114302E05A7822EA0101597009E000FAA9
:1005900001F112B11A78114302E01A7822EA01013E
:1005A0001970044B1B780BB903F070B8704700BF8B
:1005B0003C99FF1FB098FF1F074B10B50446186801
:1005C00000EBC40001F086FF021C18BF01220348A3
:1005D0002146FFF747FF10BD1496FF1FB198FF1F7C
:1005E00070B50A4A0A4B01F17F061178C0F180000C
:1005F000D8721D46144609B903F048F823782E73C3
:100600001BB9BDE8704003F041B870BDB098FF1F42
:100610003C99FF1F70B5094A094B0E461178587373
:100620001D46144609B903F031F82378AE731BB99F
:10063000BDE8704003F02AB870BD00BFB098FF1F3E
:100640003C99FF1F38B50A4A0A4B814238BF014620
:10065000597311781D46144609B903F017F80023A1
:10066000AB7323781BB9BDE8384003F00FB838BD31
:10067000B098FF1F3C99FF1F10B50C46C1B20E4841
:1006800001F028FF2CB10238C0B20E2808D80B4B5D
:1006900004E00138C0B2072802D8094B1B5601E01C
:1006A0004FF0FF33074AD373074B1B781BB9BDE8E4
:1006B000104002F0EBBF10BDE895FF1FCC560000C4
:1006C000C45600003C99FF1FB098FF1F054BC0B2F5
:1006D0005870054B5877054B1B780BB902F0D6BF05
:1006E000704700BFF095FF1F3C99FF1FB098FF1F98
:1006F00010B50020FFF7EAFF00200146FFF770FF6A
:1007000000200146FFF7B8FF00200146FFF782FFF7
:100710000124E0B200210134FFF74EFF262CF8D16E
:10072000044BFF221A70044B01221A70034B002263
:100730001A6010BDC48AFF1F2596FF1F1896FF1F61
:10074000F8B501F087FE0224E0B20221013403F083
:1007500029FB0A2CF8D11C4C1C481D4F1D4E322180
:1007600001F0B6FE20681E21883001F0B1FE20683D
:100770001E21903001F0ACFE174B01251D70FFF7D4
:10078000B7FF00212122384604F028FB134B002438
:10079000214621221C705C70304604F01FFBA5230B
:1007A0003B7033700E4B1C700E4B1D7003F016FB2C
:1007B0000D4B18600D4B1A680D4B1A6003F00EFBC1
:1007C0000C4B1860F8BD00BF1496FF1FE895FF1F83
:1007D000F095FF1F8095FF1FB098FF1F2396FF1F06
:1007E0007095FF1FA195FF1F7C95FF1F6C98FF1F41
:1007F0007895FF1F7495FF1F38B59378012B144629
:1008000036D1D378022B24D1244B1B78002B3FD137
:1008100001F0F2FC032801D1214D04E0214B224DCF
:100820005B78092B0ED111236B70207901F0D5FD77
:10083000A870607901F0D1FDE870A07901F0CDFDDC
:10084000287125E02379AB706379EB70A3792B7164
:100850001EE0032B1CD1144B5A78042A18D0114ADD
:100860005278092A14D02279DA7162791A720FE06B
:10087000082B0DD10C4B5A78042A09D0094A52781A
:10088000092A05D0E178227942EA0122A3F805205D
:10089000064B1A68064B1A6038BD00BF2596FF1F2D
:1008A0008095FF1FA295FF1FF095FF1F6C98FF1FFB
:1008B0007895FF1FF0B52E4B1A7885B0002A55D0D9
:1008C0002C4F2D4E3D68002D38D101F095FC0328AA
:1008D00006D12A4B2A4CD97F684603F035FC08E044
:1008E000284C6846E17F03F02FFC6378264C092BE7
:1008F0001BD1112363700A23A370E3702371684630
:10090000294603F03DFCA070029B012B04D96846E8
:10091000012103F035FCE070029B022B08D96846E8
:10092000022103F02DFC207102E0A570E570257115
:10093000684603F0B9FB33683B6017E03268551B2B
:10094000B5F57A6F12D30E4A0020187011210A23D0
:1009500051709370D370137150720A4A5278092AF9
:1009600004D1094A51709370D370137105B0F0BD72
:100970002596FF1F1896FF1F6C98FF1FC695FF1F37
:100980008095FF1FA295FF1FF095FF1FA64B1B78B8
:10099000F7B5002B01F0FE820021A44802F0B0FE62
:1009A00081B219B10120A14AFFF726FF01F024FC12
:1009B0000228054600F07E85032800F011860128F4
:1009C00041F0C0829A4C9B482122214601F030FC24
:1009D000FFF770FF6078FFF779FE6079A179FFF784
:1009E000FFFDA1782846C909FFF7E6FDA178924DE1
:1009F0000220C1F38011FFF7DFFDA1780320C1F3CE
:100A00004011FFF7D9FDA1780420C1F30011FFF7D1
:100A1000D3FDE1780520C909FFF7CEFDE178062076
:100A2000C1F38011FFF7C8FDE1780720C1F3401141
:100A3000FFF7C2FDE1780920C1F38001FFF7BCFD9B
:100A400021790B20C1F3C001FFF7B6FD21790C20FD
:100A5000C1F38001FFF7B0FDE1780F20C1F3C001C1
:100A6000FFF7AAFDE178102001F00101FFF7A4FDD6
:100A7000E3792B706378092B29D0E1780820C1F342
:100A80000011FFF799FDE1780A20C1F34001FFF75B
:100A900093FD21790D20C1F34001FFF78DFD2179F0
:100AA0000E20C1F34011FFF787FD95F90010B1F159
:100AB000FF33594259411120FFF77EFD95F900108F
:100AC0004A1E51424FF012005141FFF775FD637805
:100AD000574D03F0FD03042B6FD1297A1320C1F386
:100AE000C001FFF769FD297A1420C1F30011FFF757
:100AF00063FD297A1520C1F34011FFF75DFDA97A46
:100B0000162001F00101FFF757FDA97A1720C1F364
:100B10004001FFF751FDA97A1820C1F38001FFF7CA
:100B20004BFDA97A1920C1F3C001FFF745FDA97A51
:100B30001A20C1F30011FFF73FFDA97A1B20C1F372
:100B40004011FFF739FDA97A1C20C1F38011FFF78E
:100B500033FDA97A1D20C909FFF72EFDE97A1E2071
:100B600001F00101FFF728FDE97A1F20C1F34001E0
:100B7000FFF722FDE97A2020C1F38001FFF71CFD79
:100B8000E97A2120C1F3C001FFF716FDE97A22209E
:100B9000C1F30011FFF710FDE97A2320C1F34011E2
:100BA000FFF70AFDE97A2420C1F38011FFF704FD65
:100BB000E97A2520C909FFF7FFFC6378062B06D1E7
:100BC0001B4B597A2620C1F3C001FFF7F5FCA07832
:100BD000174D00F00F000021FFF74EFD6378092B41
:100BE00040F05E84EB7803F0100303F0FF0143B1A3
:100BF000E97B01F0F001B1F1100CDCF1000151EBE7
:100C00000C010820FFF7D8FC94F90430002B15DA0A
:100C1000074BD97B01F0F001B1F1100EDEF10001BC
:100C200051EB0E010BE000BFA195FF1F1C96FF1FAB
:100C3000A295FF1FF095FF1FC395FF1F00211320F2
:100C4000FFF7BAFCE37803F0020303F0FF013BB1C6
:100C5000A84BD97B01F0F001B1F11007794279413D
:100C60000A20FFF7A9FC237903F0400303F0FF01FA
:100C70003BB1A04BD97B01F0F001B1F110067142FC
:100C800071411420FFF798FCE37803F0100303F0A0
:100C9000FF013BB1974BD97B01F0F001B1F1200589
:100CA000694269412120FFF787FC94F90430002B49
:100CB00008DA904BD97B01F0F001B1F120004142FC
:100CC000414100E000212220FFF776FCE37803F0A9
:100CD000020303F0FF013BB1864BD97B01F0F00129
:100CE000B1F12002514251412320FFF765FC2379E5
:100CF00003F0400303F0FF013BB17E4BD97B01F0D1
:100D0000F001B1F12003594259412420FFF754FC6E
:100D1000E37803F0100303F0FF014BB1754BD97B6F
:100D200001F0F001B1F1300CDCF1000151EB0C01EC
:100D30002520FFF741FC94F90430002B0ADA6D4BB3
:100D4000D97B01F0F001B1F1300EDEF1000151EB81
:100D50000E0100E000212620FFF72EFCE37803F0CF
:100D6000020303F0FF013BB1624BD97B01F0F001BC
:100D7000B1F13007794279412720FFF71DFC237933
:100D800003F0400303F0FF013BB15A4BD97B01F064
:100D9000F001B1F13006714271412820FFF70CFCDF
:100DA000E37803F0100303F0FF013BB1514BD97B13
:100DB00001F0F001B1F14005694269412920FFF7D6
:100DC000FBFB94F90430002B08DA4A4BD97B01F085
:100DD000F001B1F140004142414100E000212A20F0
:100DE000FFF7EAFBE37803F0020303F0FF013BB1F6
:100DF000404BD97B01F0F001B1F140025142514129
:100E00002B20FFF7D9FB237903F0400303F0FF0108
:100E10003BB1384BD97B01F0F001B1F140035942AD
:100E200059412C20FFF7C8FBE37803F0100303F0CF
:100E3000FF014BB12F4BD97B01F0F001B1F1500C08
:100E4000DCF1000151EB0C012D20FFF7B5FB94F90B
:100E50000430002B0ADA274BD97B01F0F001B1F105
:100E6000500EDEF1000151EB0E0100E000212E20BA
:100E7000FFF7A2FBE37803F0020303F0FF013BB1AD
:100E80001C4BD97B01F0F001B1F150077942794157
:100E90002F20FFF791FB237903F0400303F0FF01BC
:100EA0003BB1144BD97B01F0F001B1F15006714216
:100EB00071413020FFF780FBE37803F0100303F06B
:100EC000FF013BB10B4BD97B01F0F001B1F16005A3
:100ED000694269413120FFF76FFB94F90430002B20
:100EE0000ADA044BD97B01F0F001B1F16000414214
:100EF000414102E0A295FF1F00213220FFF75CFB79
:100F0000E37803F0020303F0FF013BB1AA4BD97B66
:100F100001F0F001B1F16002514251413320FFF77D
:100F20004BFB237903F0400303F0FF013BB1A24BDD
:100F3000D97B01F0F001B1F16003594259413420ED
:100F4000FFF73AFBE37803F0100303F0FF014BB126
:100F5000994BD97B01F0F001B1F1700CDCF100018B
:100F600051EB0C013520FFF727FB94F90430002BDF
:100F70000ADA914BD97B01F0F001B1F1700EDEF18C
:100F8000000151EB0E0100E000213620FFF714FBB9
:100F9000E37803F0020303F0FF013BB1864BD97BFA
:100FA00001F0F001B1F1700779427941824C3720AC
:100FB000FFF702FB237903F0400303F0FF0133B195
:100FC000E17B01F0F001B1F170067142714138200E
:100FD000FFF7F2FAE37803F0100303F0FF013BB1EF
:100FE000754BD97B01F0F001B1F18005694269418F
:100FF0003920FFF7E1FA94F90430002B08DA6E4B40
:10100000D97B01F0F001B1F180004142414100E0A3
:1010100000213A20FFF7D0FAE37803F0020303F04F
:10102000FF013BB1644BD97B01F0F001B1F18002CB
:10103000514251413B20FFF7BFFA237903F04003AF
:1010400003F0FF013BB15C4BD97B01F0F001B1F142
:101050008003594259413C20FFF7AEFAE37803F090
:10106000100303F0FF014BB1534BD97B01F0F001AA
:10107000B1F1900CDCF1000151EB0C013D20FFF7C8
:101080009BFA94F90430002B0ADA4B4BD97B01F020
:10109000F001B1F1900EDEF1000151EB0E0100E024
:1010A00000213E20FFF788FAE37803F0020303F003
:1010B000FF013BB1404BD97B01F0F001B1F190074A
:1010C000794279413F20FFF777FA237903F0400313
:1010D00003F0FF013BB1384BD97B01F0F001B1F1D6
:1010E0009006714271414020FFF766FAE37803F001
:1010F000100303F0FF013BB12F4BD97B01F0F0014E
:10110000B1F1A005694269414120FFF755FA94F910
:101110000430002B08DA284BD97B01F0F001B1F143
:10112000A0004142414100E000214220FFF744FA83
:10113000E37803F0020303F0FF013BB11E4BD97BC0
:1011400001F0F001B1F1A002514251414320FFF7FB
:1011500033FA237903F0400303F0FF013BB1164B50
:10116000D97B01F0F001B1F1A0035942594144206B
:10117000FFF722FAE37803F0100303F0FF014BB10D
:101180000D4BD97B01F0F001B1F1B00CDCF10001A5
:1011900051EB0C014520FFF70FFA94F90430002BB6
:1011A0000CDA054BD97B01F0F001B1F1B00EDEF1A4
:1011B000000151EB0E0102E0A295FF1F0021462025
:1011C000FFF7FAF9E37803F0020303F0FF013BB104
:1011D000B54BD97B01F0F001B1F1B007794279410B
:1011E0004720FFF7E9F9237903F0400303F0FF01FB
:1011F0003BB1AD4BD97B01F0F001B1F1B0067142CA
:1012000071414820FFF7D8F9E37803F0100303F0A9
:10121000FF013BB1A44BD97B01F0F001B1F1C00556
:10122000694269414920FFF7C7F994F90430002B5E
:1012300008DA9D4BD97B01F0F001B1F1C0004142C9
:10124000414100E000214A20FFF7B6F9E37803F0BE
:10125000020303F0FF013BB1934BD97B01F0F00196
:10126000B1F1C002514251414B20FFF7A5F923795A
:1012700003F0400303F0FF013BB18B4BD97B01F03E
:10128000F001B1F1C003594259414C20FFF794F9E4
:101290002179864D0E20C1F34001FFF78DF9A37B24
:1012A00003F00F03022B0BD17F4B5B7943B9804BCB
:1012B00095F9002019780A4482F308021A700EE0AA
:1012C00029781120C909FFF777F995F9001000294D
:1012D0004FF01200D4BF00210121FFF76DF9A37B6D
:1012E000714D607903F00F03012B0FD0022B13D146
:1012F0006F4B00211B780093C0430B46C0B2FF2206
:1013000003F03CF9A979C943C9B202E0A979C04305
:10131000C943FFF797F904E0A979C043C943FFF730
:1013200079F9E37B03F00F03012B06D15E4B1979AA
:1013300081F02001C1F3401100E000211520FFF7EA
:101340003BF9E37B03F00F03022B06D1564B1979CF
:1013500081F02001C1F3401100E000211620FFF7C9
:101360002BF9E37B03F00F03032B06D14E4B1979C6
:1013700081F02001C1F3401100E000211720FFF7A8
:101380001BF9E37B03F00F03042B06D1464B1979BD
:1013900081F02001C1F3401100E000211820FFF787
:1013A0000BF9E37B03F00F03052B06D13E4B1979B4
:1013B00081F02001C1F3401100E000211920FFF766
:1013C000FBF8E37B03F00F03062B06D1364B1979AC
:1013D00081F02001C1F3401100E000211A20FFF745
:1013E000EBF8E37B03F00F03072B06D12E4B1979A3
:1013F00081F02001C1F3401100E000211B20FFF724
:10140000DBF8E37B03F00F03082B06D1264B197999
:1014100081F02001C1F3401100E00021224C1C208A
:10142000FFF7CAF8E37B03F00F03092B03BF217911
:1014300081F02001C1F3401100211D20FFF7BCF80D
:10144000E37B03F00F030A2B06D1174B197981F0C8
:101450002001C1F3401100E000211E20FFF7ACF88D
:10146000E37B03F00F030B2B06D10F4B197981F0AF
:101470002001C1F3401100E000211F20FFF79CF87C
:10148000E37B03F00F030C2B02D1074B00F053BD9D
:1014900000212020FFF790F800200146FFF7A0F878
:1014A000022400F056BD00BFA295FF1FC395FF1F89
:1014B000C48AFF1FC04CC14EC14F21462A4600239B
:1014C000304600F0FBFE0720FFF700F9FFF7F2F9C6
:1014D000B87800F057FF2A46412330702146304645
:1014E00000F0ECFE2078012100F01E00FFF7C4F8A8
:1014F00021780D2001F00101FFF75EF8F87800F087
:1015000041FF2A462B4630702146304600F0D6FE79
:1015100021780B2001F00101FFF74EF8217805201A
:10152000C1F38001FFF748F821780E20C1F3C00114
:10153000FFF742F821780620C1F30011FFF73CF8CD
:10154000387900F01FFF2A46442330702146304688
:1015500000F0B4FE21780F2001F00101FFF72CF814
:1015600021780920C1F34001FFF726F821780A20ED
:10157000C1F38001FFF720F821780820C1F3C001F2
:10158000FFF71AF821780720C1F30011FFF714F8CC
:10159000B7F8050000F00AFF2A46082330702146FC
:1015A000304600F08BFE2178102001F00101FFF79A
:1015B00003F821780120C1F34001FEF7FDFF2178F7
:1015C0002846C1F38001FEF7F7FF21780320C1F31D
:1015D000C001FEF7F1FF21780420C1F3001159E7A3
:1015E000784C79482122214600F0A0FEFFF762F9ED
:1015F0006078FFF76BF8A078002100F00F00FFF78C
:101600003BF8A1780120C909FEF7D6FFA178022096
:10161000C1F38011FEF7D0FFA1782846C1F3401135
:10162000FEF7CAFFA1780420C1F30011FEF7C4FF42
:10163000E1780520C909FEF7BFFFE1780620C1F374
:101640008011FEF7B9FFE1780720C1F34011FEF7E2
:10165000B3FFE1780920C1F38001FEF7ADFFE37825
:1016600003F0100303F0FF0143B1E17B01F0F0014F
:10167000B1F1100CDCF1000151EB0C010820FEF778
:101680009BFF94F90430002B0ADA4E4BD97B01F012
:10169000F001B1F1100EDEF1000151EB0E0100E09E
:1016A00000211320FEF788FFE37803F0020303F024
:1016B000FF013BB1434BD97B01F0F001B1F11007C1
:1016C000794279410A20FEF777FF237903F040033E
:1016D00003F0FF013BB13B4BD97B01F0F001B1F1CD
:1016E0001006714271411420FEF766FFE37803F0A3
:1016F000100303F0FF013BB1324BD97B01F0F00145
:10170000B1F12005694269412120FEF755FF94F9A6
:101710000430002B08DA2B4BD97B01F0F001B1F13A
:1017200020004142414100E000212220FEF744FF19
:10173000E37803F0020303F0FF013BB1214BD97BB7
:1017400001F0F001B1F12002514251412320FEF796
:1017500033FF237903F0400303F0FF013BB1194B42
:10176000D97B01F0F001B1F1200359425941242005
:10177000FEF722FFE37803F0100303F0FF014BB103
:10178000104BD97B01F0F001B1F1300CDCF100011C
:1017900051EB0C012520FEF70FFF94F90430002BCC
:1017A00014DA084BD97B01F0F001B1F1300EDEF113
:1017B000000151EB0E010AE0C495FF1F2396FF1FA5
:1017C000F095FF1FC695FF1F8095FF1F0021262063
:1017D000FEF7F2FEE37803F0020303F0FF013BB1F2
:1017E000A84BD97B01F0F001B1F130077942794182
:1017F0002720FEF7E1FE237903F0400303F0FF0109
:101800003BB1A04BD97B01F0F001B1F13006714240
:1018100071412820FEF7D0FEE37803F0100303F0B7
:10182000FF013BB1974BD97B01F0F001B1F14005CD
:10183000694269412920FEF7BFFE94F90430002B6C
:1018400008DA904BD97B01F0F001B1F14000414240
:10185000414100E000212A20FEF7AEFEE37803F0CC
:10186000020303F0FF013BB1864BD97B01F0F0018D
:10187000B1F14002514251412B20FEF79DFE2379E8
:1018800003F0400303F0FF013BB17E4BD97B01F035
:10189000F001B1F14003594259412C20FEF78CFE72
:1018A000E37803F0100303F0FF014BB1754BD97BD4
:1018B00001F0F001B1F1500CDCF1000151EB0C0131
:1018C0002D20FEF779FE94F90430002B0ADA6D4BD7
:1018D000D97B01F0F001B1F1500EDEF1000151EBC6
:1018E0000E0100E000212E20FEF766FEE37803F0F3
:1018F000020303F0FF013BB1624BD97B01F0F00121
:10190000B1F15007794279412F20FEF755FE237936
:1019100003F0400303F0FF013BB15A4BD97B01F0C8
:10192000F001B1F15006714271413020FEF744FEE2
:10193000E37803F0100303F0FF013BB1514BD97B77
:1019400001F0F001B1F16005694269413120FEF713
:1019500033FE94F90430002B08DA4A4BD97B01F0AE
:10196000F001B1F160004142414100E0002132202C
:10197000FEF722FEE37803F0020303F0FF013BB120
:10198000404BD97B01F0F001B1F16002514251416D
:101990003320FEF711FE237903F0400303F0FF012B
:1019A0003BB1384BD97B01F0F001B1F160035942F2
:1019B00059413420FEF700FEE37803F0100303F0F2
:1019C000FF014BB12F4BD97B01F0F001B1F1700C4D
:1019D000DCF1000151EB0C013520FEF7EDFD94F92F
:1019E0000430002B0ADA274BD97B01F0F001B1F16A
:1019F000700EDEF1000151EB0E0100E000213620F7
:101A0000FEF7DAFDE37803F0020303F0FF013BB1D8
:101A10001C4BD97B01F0F001B1F17007794279419B
:101A20003720FEF7C9FD237903F0400303F0FF01DF
:101A30003BB1144BD97B01F0F001B1F1700671425A
:101A400071413820FEF7B8FDE37803F0100303F08E
:101A5000FF013BB10B4BD97B01F0F001B1F18005E7
:101A6000694269413920FEF7A7FD94F90430002B43
:101A70000ADA044BD97B01F0F001B1F18000414258
:101A8000414102E0C695FF1F00213A20FEF794FD78
:101A9000E37803F0020303F0FF013BB1AF4BD97BC6
:101AA00001F0F001B1F1800251425141AB4C3B20B9
:101AB000FEF782FD237903F0400303F0FF0133B109
:101AC000E17B01F0F001B1F18003594259413C2022
:101AD000FEF772FDE37803F0100303F0FF014BB152
:101AE0009E4BD97B01F0F001B1F1900CDCF10001CB
:101AF00051EB0C013D20FEF75FFD94F90430002B03
:101B00000ADA964BD97B01F0F001B1F1900EDEF1CB
:101B1000000151EB0E0100E000213E20FEF74CFDDC
:101B2000E37803F0020303F0FF013BB18B4BD97B59
:101B300001F0F001B1F19007794279413F20FEF7C1
:101B40003BFD237903F0400303F0FF013BB1834BDE
:101B5000D97B01F0F001B1F1900671427141402052
:101B6000FEF72AFDE37803F0100303F0FF013BB119
:101B70007A4BD97B01F0F001B1F1A00569426941CE
:101B80004120FEF719FD94F90430002B08DA734B5D
:101B9000D97B01F0F001B1F1A0004142414100E0E8
:101BA00000214220FEF708FDE37803F0020303F072
:101BB000FF013BB1694BD97B01F0F001B1F1A0020B
:101BC000514251414320FEF7F7FC237903F04003D3
:101BD00003F0FF013BB1614BD97B01F0F001B1F1A2
:101BE000A003594259414420FEF7E6FCE37803F094
:101BF000100303F0FF014BB1584BD97B01F0F0010A
:101C0000B1F1B00CDCF1000151EB0C014520FEF705
:101C1000D3FC94F90430002B0ADA504BD97B01F045
:101C2000F001B1F1B00EDEF1000151EB0E0100E068
:101C300000214620FEF7C0FCE37803F0020303F026
:101C4000FF013BB1454BD97B01F0F001B1F1B00789
:101C5000794279414720FEF7AFFC237903F0400336
:101C600003F0FF013BB13D4BD97B01F0F001B1F135
:101C7000B006714271414820FEF79EFCE37803F004
:101C8000100303F0FF013BB1344BD97B01F0F001AD
:101C9000B1F1C005694269414920FEF78DFC94F914
:101CA0000430002B08DA2D4BD97B01F0F001B1F1A3
:101CB000C0004142414100E000214A20FEF77CFC87
:101CC000E37803F0020303F0FF013BB1234BD97B20
:101CD00001F0F001B1F1C002514251414B20FEF739
:101CE0006BFC237903F0400303F0FF013BB11B4B76
:101CF000D97B01F0F001B1F1C003594259414C20A8
:101D0000FEF75AFC21790C20C1F38001FEF754FC48
:101D100021790E20C1F34001FEF74EFCE1780F203F
:101D2000C1F3C001FEF748FCE178102001F0010189
:101D3000FEF742FCA27B0A4BE179197002F00F0218
:101D4000022A1D4610D1054B5B796BB9054B1A78F9
:101D500042FA81F181F30801197013E0C695FF1F63
:101D6000C395FF1FC48AFF1F1120C909FEF724FC79
:101D700095F9001000294FF01200D4BF0021012175
:101D8000FEF71AFCA37B844D607903F00F03012B4F
:101D90000FD0022B13D1814B00211B780093C0433D
:101DA0000B46C0B2FF2202F0E9FBA979C943C9B2D0
:101DB00002E0A979C043C943FEF744FC04E0A979D5
:101DC000C043C943FEF726FCE37B03F00F03012B5E
:101DD00006D1714B197981F02001C1F3401100E067
:101DE00000211520FEF7E8FBE37B03F00F03022B35
:101DF00006D1694B197981F02001C1F3401100E04F
:101E000000211620FEF7D8FBE37B03F00F03032B22
:101E100006D1614B197981F02001C1F3401100E036
:101E200000211720FEF7C8FBE37B03F00F03042B10
:101E300006D1594B197981F02001C1F3401100E01E
:101E400000211820FEF7B8FBE37B03F00F03052BFE
:101E500006D1514B197981F02001C1F3401100E006
:101E600000211920FEF7A8FBE37B03F00F03062BEC
:101E700006D1494B197981F02001C1F3401100E0EE
:101E800000211A20FEF798FBE37B03F00F03072BDA
:101E900006D1414B197981F02001C1F3401100E0D6
:101EA00000211B20FEF788FBE37B03F00F03082BC8
:101EB00006D1394B197981F02001C1F3401100E0BE
:101EC00000211C20FEF778FBE37B03F00F03092BB6
:101ED00006D1314B197981F02001C1F3401100E0A6
:101EE00000211D20FEF768FBE37B03F00F030A2BA4
:101EF00006D1294B197981F02001C1F3401100E08E
:101F000000211E20FEF758FBE37B03F00F030B2B91
:101F100006D1214B197981F02001C1F3401100E075
:101F200000211F20FEF748FBE37B03F00F030C2B7F
:101F30007FF4AEAA184B197981F02001C1F340114A
:101F4000FFF7A7BAFEF7D4FB0A2001F065FFFFF701
:101F5000A7BA204601F018FF04F14B03D0F10101AC
:101F600004F1010438BF0021D8B2E4B2FEF724FB2B
:101F70000A2CEED10A4C01F031FF2368984209D3B4
:101F8000C31A41F28732934204D901F07FFB01F07A
:101F900025FF206003B0F0BDC695FF1FC48AFF1F58
:101FA0007495FF1F70B54FF4327002F0A3FA054626
:101FB000044600F532762046083400F083FAB44235
:101FC000F9D1034B03481D60BDE8704000F07ABAB8
:101FD0001496FF1FE895FF1F002AF0B50CBF4FF0C5
:101FE00064524FF0605200240F4E104FA65B104D0C
:101FF00097FBF6F6B14255F8145004D3190706D5ED
:1020000042F0806203E002342E2CEDD1F6E75B074C
:1020100007D525F4704305F4704542F0007243EA99
:1020200015152A430260F0BD8059000000366E018C
:10203000B059000010B50446FFF7CEFF204610BD92
:1020400010B5184B1A7802B372B61B78D90707D5AA
:10205000154A1649146809682140154C2160116021
:102060009A0707D5134A1149146849682140104C52
:10207000616011605B0707D50F4B0C4A19689268C5
:102080000A400B498A601A6062B60C4BDA688242D9
:1020900007D00B4A1A60D8600A4A40F080401861A5
:1020A0001A6010BD0099FF1F80E100E0E898FF1F53
:1020B000F498FF1F84E100E088E100E000C00240E6
:1020C00001401F0000001F80054B4FF00042DA6204
:1020D0005863DA6A002AFCDA014B986BC0B2704789
:1020E00000C002400A4B1B788BB1D90703D5094ABF
:1020F0001168094A11609A0703D5064A5168074AD0
:1021000011605B0703D5034B9A68054B1A60704753
:102110000099FF1FF498FF1F00E100E004E100E0D8
:1021200008E100E010B50023FF22DCB2A14205D097
:10213000C45C6240024C0133A25CF6E7104610BD5D
:10214000C58AFF1FF8B50226294B1868FFF778FFEC
:102150000A20002101F0F8FD264B1B68DB0002D0AD
:10216000013B7FF4FDAF0020FFF7AEFF522804468D
:1021700006D120250020FFF7A7FF013DFAD125E079
:10218000D22806D13F250020FFF79EFF013DFAD15E
:102190001CE0E0281AD0C8B1232700250020FFF753
:1021A00093FFA52D03D109280CD11F2403E0522D44
:1021B00008D18428F8E70020FFF786FF013CFAD118
:1021C0002C4603E0013F01D00546E7E70A20012144
:1021D00001F0BAFDFFF786FF5023013B7FF4FDAF0E
:1021E000013EB1D10A2001F017FE2046F8BD00BF24
:1021F0002896FF1FD08BFF1F10B50C4C23789BB97E
:10220000FFF7A0FFA5280BD002D8522806D009E07E
:10221000D22803D0E02805D1022304E0012302E004
:10222000032300E000232370207810BD2696FF1FB3
:102230002DE9F041561E0C46F1B217468046FFF7D5
:1022400071FF1C4B88F820001868FFF7F9FE0A2080
:10225000002101F079FD0025BD4206DA18F80500DD
:10226000FFF732FF60550135F6E70A20012101F042
:102270006BFDFFF737FF237803F07F03522B0ED15E
:1022800023461A1BB24207DA5A781978D20942EA71
:10229000410203F8012BF4E7A35D5B00A35523780B
:1022A00003F0FE03A42B02D0034B00221A70BDE8FA
:1022B000F08100BF2896FF1F2696FF1F2DE9F041F1
:1022C00006460F46904643700225154B1868FFF7E7
:1022D000B7FE0A20002101F037FD124B1B68DB001E
:1022E00001D1002403E0013B7FF4FDAFF9E7444551
:1022F00005DA305DFFF7E8FE38550134F7E70A20CC
:10230000012101F021FDFFF7EDFE013DDDD17378E4
:1023100023B93B78E02B1CBF034B1D70BDE8F08157
:102320002896FF1FD08BFF1F2696FF1FF8B50D467E
:10233000511EC9B216460746FFF7F4FE0F4B87F849
:1023400020001868FFF77CFE0A20002101F0FCFC49
:102350000024B44205DA385DFFF7B6FE2855013493
:10236000F7E70A20012101F0EFFCFFF7BBFE2B7815
:10237000A52B02D0024B00221A70F8BD2896FF1F31
:102380002696FF1F10B500231A46074CC14319417A
:102390001C5D01F00101A14001330A43082BD2B2B8
:1023A000F3D1104610BD00BFC58BFF1F10F4C07FD6
:1023B00014BFEF23FF2310F0600F18BFAF2310F0FE
:1023C000180F18BFBF2310F0060F18BFFE2310F020
:1023D000010F0CBF1846AE207047502833D00FD8DD
:1023E0000F2834D004D806281FD0072830D02CE07E
:1023F0003F2818D04F281CD0392826D128207047D4
:102400006D281AD007D85B2811D0662813D054281D
:102410001BD14E2070477D2811D07F2811D06F2806
:1024200013D1092070470020704701207047022017
:10243000704703207047042070470520704706202E
:10244000704708207047522070470A2070472920A3
:102450007047FFFF07B50A20012101F0A3FC0A2005
:10246000012101F071FC02F017F906490122002355
:1024700001A8FFF7DFFD019802F054F903B05DF801
:1024800004FB00BF00093D0010B5074C074821467A
:1024900001220023FFF7CEFD214601220423044838
:1024A000FFF7C8FD10BD00BF001BB7002896FF1F37
:1024B0002C96FF1F08B5FEF743F9FEF767FA02F006
:1024C00055F8FAE70022322102608180827170475C
:1024D0008180704710B583798B4209D0054B026823
:1024E0001C68A21A8488A24202D31B68036081710F
:1024F000807910BD6C98FF1F174B1A6842F4805208
:102500001A60164A00231370154A1370154A137087
:10251000154A1370154A1370154A40F213311160B1
:102520004FF451715160134AC0F344311170C0F33C
:10253000471100F01F0051709072937013742C2398
:10254000D3700D4B40226FF44B711A700B444FF453
:1025500000321A60704700BF348004409A96FF1F13
:102560003196FF1FA096FF1F9B96FF1F3096FF1FFF
:1025700008C0044000C0064031E400E0134A9378EC
:1025800000F0030103F0EC030B43410748BF43F0A5
:102590001003937000F00F03042B0C4903D18B79C7
:1025A00043F040038B715379C20603F0EF03074AEF
:1025B00048BF43F0100353719379810603F0EF0392
:1025C00048BF43F010039371704700BF00C006403E
:1025D00008B50E4B1B68DB0400D408BD0C4B1A7801
:1025E00002F0FF0312B101F0C1FFF7E7094A4FF40F
:1025F00000311160084A0949D37040F203120A60A1
:102600004A60074A1370074A137008BD34800440BB
:102610003096FF1F84E100E000C0064008C004407F
:102620009A96FF1F3196FF1F38B50446094B1B7859
:1026300003F0FF05002BF9D12046012101F0B2FB88
:102640002046294601F080FB034B53F83420034B0E
:102650001A6038BD3096FF1F585700009C96FF1F28
:102660000B4B1B6813F4805310D00228094B09D17F
:10267000094A4FF4407111605A7B42F008025A73C4
:10268000012070475A7B02F0F7025A73002070470E
:102690003480044000C0064000C004400B4B1B685F
:1026A00013F4805310D00E28094B09D1094A4FF476
:1026B000407111605A7B42F001025A730120704749
:1026C0005A7B02F0FE025A730020704734800440A7
:1026D00000C0064004C00440F8B51D4B1B68DA0476
:1026E000064633D51B4B1B680BB101221A701A4BDF
:1026F0001C780134282C1F4628BF0024174D2B7846
:10270000A34218D101F07CFC40280FDC144A137955
:102710001B06F3D52B7813490133282B28BF002340
:10272000C95CDBB2C9B2D1712B70E7E7FF28E5DDE8
:1027300001F01CFFE2E70B4BF6B21E550A4B0122DB
:102740001A70074BE4B2AC223C70DA70F8BD00BFDF
:10275000348004409C96FF1FA096FF1F9B96FF1F8E
:1027600000C006403296FF1F3096FF1F38B5044662
:102770004518AC4204D014F8010BFFF7ADFFF8E7A1
:1027800038BDFFFF08B5034B1B7813B101F0EEFE17
:10279000F9E708BD3096FF1F064A074B1B781078F3
:1027A000DBB2C0B283422CBF273000F1FF30C01A29
:1027B000704700BF9B96FF1FA096FF1F054B187820
:1027C000054B1B78C0B2DBB2984238BF4030C01A0C
:1027D000704700BF9A96FF1F3196FF1F094B0A4AA8
:1027E00019781378DBB2994208D00133402B28BF07
:1027F00000230649C85CDBB2137070474FF0FF300E
:10280000704700BF9A96FF1F3196FF1F5A96FF1F11
:10281000084B1A78084B1B78DBB29A4207D0013379
:10282000402B28BF0023054AD05CC0B270474FF050
:10283000FF3070479A96FF1F3196FF1F5A96FF1F71
:10284000024B1A78024BD2B21A7070473196FF1FB2
:102850009A96FF1F10B5214B1A7992060FD5204A80
:10286000D87913781F490133402B097828BF0023FA
:102870008B42C0B203D01C49C854DBB21370174A54
:10288000D178C9B20C0616D51379180613D5174B93
:1028900017481C780378DBB29C4202D16C23D370BA
:1028A00009E00133282B28BF0023124CE45CDBB283
:1028B000E4B2D47103704B060ED5084B1A7912F0AE
:1028C000400F194608D00C4B00221A700B4B1B68A6
:1028D00003B11A702C23CB7010BD00BF00C006409E
:1028E0009A96FF1F3196FF1F5A96FF1FA096FF1F53
:1028F0009B96FF1F3296FF1F3096FF1F9C96FF1F6F
:102900001FB572B6154B70221A70154A412111700D
:102910000F2102F8011C80221A701A781206FCD5C9
:10292000104B186862B6104B984298BF0A2301AC4E
:1029300098BF584321460A2200F04CFF0023E15C77
:102940000A4A29B102EB430001330A2B4180F6D138
:1029500001335B00137004B010BD00BF00000240E3
:1029600007000240080002407F969800F28CFF1F8B
:10297000194B1A6842F480621A60184A00231370D7
:10298000174A1370174A1370174A1370174A1370B7
:10299000174B40F213321A604FF451725A60154BC4
:1029A000C0F344321A70C0F347125A700221042255
:1029B00000F01F0098729A70D9745A7588221A74A0
:1029C0003C22DA700C4B40226FF44A711A700B44AF
:1029D0004FF400521A607047348004402A97FF1F5A
:1029E000A996FF1F3097FF1F2B97FF1FA896FF1F69
:1029F00040A0044000A006402DE400E0134A937874
:102A000000F0030103F0EC030B43410748BF43F020
:102A10001003937000F00F03042B0C4903D18B7942
:102A200043F040038B715379C20603F0EF03074A6A
:102A300048BF43F0100353719379810603F0EF030D
:102A400048BF43F010039371704700BF00A00640D9
:102A500008B5114B1B685B0500D408BD0F4B1A78F5
:102A600002F0FF0312B101F081FDF7E70C4A4FF4C9
:102A7000005111600B4A0C49D37040F203120A60F6
:102A80004A600A4A13700A4A13700A4B1B680BB15A
:102A900001221A7008BD00BF34800440A896FF1FB1
:102AA00084E100E000A0064040A004402A97FF1FF8
:102AB000A996FF1FA496FF1F38B50446094B1B7843
:102AC00003F0FF05002BF9D12046012101F06AF93E
:102AD0002046294601F038F9034B53F83420034BC4
:102AE0001A6038BDA896FF1F585700002C97FF1F8B
:102AF0000D4A38B5146814F480624FF0000410D009
:102B000021280A4D0AD80A4A012152F830302B6098
:102B100001F048F92B681C70012038BD2C6020465C
:102B200038BD104638BD00BF34800440A496FF1F56
:102B3000585700000E4B1B6813F4806316D0122800
:102B40000C4B03D140F202310B4A04E0142809D1A6
:102B50000A4A40F2023111605A7B42F001025A7374
:102B6000012070475A7B02F0FE025A730020704722
:102B70003480044000A006400CA0044014C004406F
:102B8000F8B51D4B1B685A05064633D51B4B1B6811
:102B90000BB101221A701A4B1C780134402C1F46CD
:102BA00028BF0024174D2B78A34218D101F028FA32
:102BB00040280FDC144A13791B06F3D52B781349F0
:102BC0000133402B28BF0023C95CDBB2C9B2D171ED
:102BD0002B70E7E7FF28E5DD01F0C8FCE2E70B4BCF
:102BE000F6B21E550A4B01221A70074BE4B2BC2202
:102BF0003C70DA70F8BD00BF348004402C97FF1F92
:102C00003097FF1F2B97FF1F00A00640AA96FF1FBB
:102C1000A896FF1F274B1B685A052DE9F04707466A
:102C20008A4644D5244B1B680BB101221A703D46DD
:102C300007EB0A039D4237D2DFF890801F4E98F8C9
:102C4000004096F800900134402C28BF00245FFA21
:102C500089F9A1451DD11A4BBC22DA7001F0D0F9D7
:102C600040280FDC164A13791B060FD53378154917
:102C70000133402B28BF0023C95CDBB2C9B2D1713C
:102C8000337003E0FF2801DD01F070FC33784B4521
:102C9000E4D00C4B15F8012B1A550B4B0122E4B272
:102CA0001A7088F80040C3E7054BBC22DA70BDE813
:102CB000F08700BF348004402C97FF1F2B97FF1F25
:102CC00000A00640AA96FF1FA896FF1F3097FF1F7F
:102CD00008B5034B1B7813B101F048FCF9E708BDB8
:102CE000A896FF1F064A074B1B781078DBB2C0B2CC
:102CF00083422CBF3F3000F1FF30C01A704700BF45
:102D00002B97FF1F3097FF1F054B1878054B1B783B
:102D1000C0B2DBB2984238BF4030C01A704700BF23
:102D20002A97FF1FA996FF1F10B5104B10491A785C
:102D30000B78D2B2DBB29A4214D00133402B28BFB9
:102D400000230C48DCB2C05C0C700B490968C0B2AF
:102D500051B19A4238BF4032D31A1A2B04DC0023F7
:102D60000B7010BD4FF0FF3010BD00BF2A97FF1F42
:102D7000A996FF1FEA96FF1FA496FF1F084B1A781B
:102D8000084B1B78DBB29A4207D00133402B28BF97
:102D90000023054AD05CC0B270474FF0FF30704747
:102DA0002A97FF1FA996FF1FEA96FF1F0C4B1B686F
:102DB0005B0514D50B4BDA7802F0CB02DA704022B7
:102DC0005A74DA7842F03402DA70074B1A78074BFB
:102DD000D2B21A70064B1B680BB100221A707047F2
:102DE0003480044000A00640A996FF1F2A97FF1FC9
:102DF000A496FF1F30B5374B1A7912F0300F31D03F
:102E000072B69A7D02F0FF0022B9DA7940225A7434
:102E100062B627E062B6304A304913780978DBB2EF
:102E2000C9B214462B4AD5795A1C402A28BF002221
:102E30008A42EDB202D02A4B9D541346421E12F034
:102E4000FF00EFD1DAB22270264A126852B18B42EB
:102E500036BFC1F14001C1EB03035B18272BC4BF90
:102E6000012313701B4BD978C9B20C0620D51B79EE
:102E700018061DD51C4B1D4A1D781378EDB2DBB228
:102E80001046AB420CD0134A0133402B1479184C36
:102E900028BF0023E45CE4B2D471127D072AF0D984
:102EA000DBB203700B4B1A79120644BF7C22DA7036
:102EB0004B060ED5074B1A7912F0400F194608D071
:102EC0000C4B00221A700C4B1B6803B11A703C2388
:102ED000CB7030BD00A006402A97FF1FA996FF1FA8
:102EE000EA96FF1FA496FF1F3097FF1F2B97FF1F27
:102EF000AA96FF1FA896FF1F2C97FF1FF0B50C4B3B
:102F00000C4C1A7842F0020504EBC50682F001026F
:102F1000706009481A700678002E0CBF8827C827F1
:102F200086F0010647EA0141067044F83510F0BD0D
:102F30008C97FF1F0080FF1FF497FF1F431E012B7C
:102F400010B510D872B6094A52F8230048B141684A
:102F500042F82310064A018832F81340611A22F819
:102F6000131062B610BD002010BD00BF8497FF1F74
:102F70003899FF1F013801280AD872B6054B53F85B
:102F80002030002013B101305B68FBE762B6704768
:102F900000207047D097FF1F10B572B61A4B1A78F1
:102FA00012F0080F1C46194B04D0194A116A81B15E
:102FB000926AC2B16278120704D5154A116C51B1F8
:102FC000926C92B162B600221A70BDE8104000F017
:102FD000DFBB042200E008220D4901EBC2040830E7
:102FE00060600C4808E0052200E00922084901EB76
:102FF000C20408306060084841F832001A78013A8B
:103000001A7062B610BD00BFDB560000EA97FF1FC2
:103010000080FF1F88004000C8004000431E012BB5
:1030200030B532D8194A400140F01000104472B651
:10303000174CE25C032A09D8DFE802F016021805F3
:103040000830022213E00830042210E01148124A2E
:1030500050F8234014B940F8231002E052F823003E
:10306000416042F823100FE0032200E00522E25401
:1030700010F0080F01F108030A8843600CBF882391
:10308000C82343EA0243036062B630BD0080FF1FDD
:103090004097FF1FD097FF1FD897FF1F2DE9F84FCC
:1030A000AB4F3B78DBB213F0040F3A460ED0A94980
:1030B000097849B1A848047804F0FF0124B1013926
:1030C000C9B2017001B900BE0421397003F00800D3
:1030D00000F0FF01002800F03682A04BA04C1A78C7
:1030E000D2B215094FEA920840F0B38154F8382063
:1030F00004EBC803C2F38302013A5B680C2A00F2B6
:10310000A581DFE812F07B017B01A301A301A301EC
:10311000A301A301A3017F01A301A301A3010D004A
:10312000904D1A685B686B608F4B44F838302A60AA
:10313000DFF868828D4892B200230121B2F5A06FBA
:10314000C8F800302361A361017000F02D8114D80C
:10315000822A00F0B88006D8802A40F0F480844C9F
:103160002370637022E1B2F5817F00F0B98040F2F4
:1031700002339A4200F0C280E5E0B2F5086F00F039
:103180009C8008D8A2F5D062012A00F2DC806A880F
:10319000A988784BC6E0B2F5106F40F0D4806D4B33
:1031A0006F4EAA781A7006F14009336A1B0603D5E0
:1031B000706A083800F0ECFA08364E45F5D1002662
:1031C000B146DFF8DCA156F80A0028B1D0F804B007
:1031D00000F0DEFA5846F8E74AF80600664BDFF8DA
:1031E000C4A1F05056F80A0028B1D0F804B000F09D
:1031F000CFFA5846F8E7614B4AF80600F050604BAA
:1032000023F819005F4B19F80320023A032A08D863
:10321000DFE802F002040204002200E0012203F8C9
:10322000092009F10109B9F1020F06F10406C8D11C
:10323000554B00221A7001269A46544A544B324488
:10324000334412F8012C9B0012F0080F1A704FEA59
:10325000860925D000F07EFA38B104EB4613083019
:1032600058604C4B44F8393006E09AF8003044F886
:10327000390001338AF8003000F06CFA49F001039C
:1032800038B104EBC30208305060374A44F83320A9
:1032900006E044F833009AF8003001338AF8003031
:1032A00049F00202013649F003090023032E44F8D5
:1032B000323044F83930C0D176E0264B2C4C1B78A4
:1032C00023700B4673E0AA88022A3CD8284C92004F
:1032D00023706370304B9B5C9E0767D5217065E05F
:1032E000AA8802F07F02022A2DDC6B885BBB91006A
:1032F000294A0A44117821F002010CE0AA8802F060
:103300007F02022A1FDC6B88EBB99100224A0A4433
:10331000117841F00201117046E033F80C6C9642CE
:1033200007D00C3353F8084CA3F10C00002CF4D157
:1033300009E033F80A6C8E42F3D1120A032A0CBF5B
:103340002378038933E0144B0F221A7053E000BF37
:1033500080200740F397FF1F8D97FF1F90200740A5
:103360000080FF1FE097FF1FC8004000F497FF1F79
:10337000EB97FF1FEC5600003897FF1FD897FF1FF1
:103380003899FF1F4097FF1FEA97FF1FDB56000089
:1033900030C8011088004000C02007403497FF1F4C
:1033A0008497FF1FD097FF1F1C4600E00223EE8882
:1033B000B34238BF1E46402E34BF35464025204616
:1033C0002946FFF79BFD761B2C4403D1402D12D1DB
:1033D000354603E0402E34BF354640252046294679
:1033E000FFF78CFD761B2C4401D1402D03D1724A8E
:1033F000C8F8004016800122704B26E0704B44F85C
:10340000383023E06F4E3568B5B1DFF8AC81B8F8DD
:103410000090B9F1400F34BF4C4640242846214665
:10342000FFF76CFDC4EB09039BB2A8F800300BB9A1
:10343000402C00D12B193360634B1A88B2F5A06F72
:1034400004D100225A709A78604B1A7001225B4BAB
:103450006CE004EBC806013D736802F00802A3F1BA
:103460000800EDB202F0FF01002A36D000F090F91A
:103470005748584B50F82520EAB1516840F82510BC
:1034800002F108017160595D03290BD8DFE801F0F2
:1034900002040608032104E0022102E0052100E005
:1034A0000421595516F0080F12880CBF8823C82331
:1034B00043EA024342E05A5D032A07D8DFE802F0FC
:1034C00040400204002206E0012204E016F0080F4A
:1034D0000CBF022203225A5532E054F83820120C55
:1034E00023F8082C22B3DFF81CE123F8061C43F86C
:1034F000041C5EF82530384913B94EF8250002E067
:1035000051F825305860354B41F8250033F8151037
:103510000A4423F8152000F01DF910B1083070603E
:1035200006E02F4B44F838001A7801321A7007E091
:10353000234B2C4A16F0080F08BF134644F83830C6
:1035400008233B70ACE5DC0720D51C48254C264DF4
:1035500002230370254B1970254B1C609C60254C81
:10356000DC605D6019619961234B0D241C70234C54
:10357000FF2323701370154A117002F80C3C204B86
:103580009F221A7001230370BDE8F88F180604D536
:1035900019490D20087080211170990705D5174928
:1035A0000878C0B2087002211170DB0644BF1023F6
:1035B0001370BDE8F88F00BFE897FF1F9420074005
:1035C000C80040003497FF1FE097FF1F9820074076
:1035D000D097FF1F4097FF1F3897FF1F3899FF1F95
:1035E000EA97FF1F880040004497FF1F8C97FF1F3A
:1035F0000080FF1F9097FF1FC020074088200740D2
:10360000842007408497FF1F08B5FFF779F91B4B0B
:103610001B4900221A609A601A6108685A6040F4D7
:103620008020DA605A61086001F528316831C3F3FF
:1036300007200870C3F307401B0E08750B76FF23A5
:1036400001F81C3C01F8143C01F88C3C012301F802
:10365000083C81F864200B4A13700B4B70226FF406
:1036600050711A700B444FF400721A6003F1C0439A
:1036700003F5C82310221A7008BD00BF0080FF1F89
:10368000348004408420074049E400E038B541F626
:10369000B564184B1B7853B30120FFF76BFC02286D
:1036A000154D02D9013C0DD10EE000F053F8014652
:1036B0000028F7D000232B70104B00F1080203F113
:1036C000200007E02B7813B101232B700FE000F0EE
:1036D0004DFFDEE753F8044B42F8044B8342F9D127
:1036E00020230B800120FFF799FC002038BD4FF00C
:1036F000FF3038BDF397FF1FF597FF1F3C99FF1F61
:10370000F8B5124B1E6805460C461F46104B1B7839
:10371000ABB10120FFF712FC024638B93B689B1B96
:10372000A3420FD87CB100F021FFEFE752F8083F29
:103730002B6053686B6000F02BF80820F8BD4FF049
:10374000FF30F8BDF8BD2046F8BD00BF6C98FF1FE4
:10375000F397FF1F72B60C4A1168B1FA81F3172B69
:1037600002D962B6002070474FF00040D84021EAED
:103770000001116062B6054948225343C81800226F
:10378000CA504260704700BF088DFF1F0084FF1FB2
:103790000C4B4822C31AB3FBF2F3172B11D80A4A79
:1037A000127822B1094A12780AB1FFF7F5BB72B656
:1037B000074A4FF0004121FA03F3116819431160E1
:1037C00062B670470084FF1FEA97FF1FF397FF1F41
:1037D000088DFF1F10B50023B0FBF2F402FB1400AC
:1037E000092894BF30303730C0B2C85420460CB1DD
:1037F0000133F1E7CA18547022469A4206DA885C0F
:10380000CC5C8C54C8540132013BF6E7084610BD2D
:10381000194B1A6842F400621A60184A00231370A8
:10382000174A1370174A1370174A1370174A137008
:10383000174B40F213321A604FF451725A60154B15
:10384000C0F344321A70C0F347125A7000F01F00E0
:103850000422022198729A70D9745A7588221A74B7
:103860003C22DA700C4B40221A70A3F22B334FF437
:1038700000421A60704700BF348004406098FF1F08
:10388000F797FF1F6898FF1F6198FF1FF697FF1FAC
:103890000CB0044000B006402FE400E0134A9378D7
:1038A00000F0030103F0EC030B43410748BF43F072
:1038B0001003937000F00F03042B0C4903D18B7994
:1038C00043F040038B715379C20603F0EF03074ABC
:1038D00048BF43F0100353719379810603F0EF035F
:1038E00048BF43F010039371704700BF00B006401B
:1038F00008B50E4B1B681B0500D408BD0C4B1A788D
:1039000002F0FF0312B100F031FEF7E7094A4FF46D
:1039100000411160084A0949D37040F203120A605D
:103920004A60074A1370074A137008BD3480044088
:10393000F697FF1F84E100E000B006400CB00440A1
:103940006098FF1FF797FF1F38B50446094B1B7897
:1039500003F0FF05002BF9D12046012100F022FAE7
:103960002046294600F0F0F9034B53F83420034B6E
:103970001A6038BDF697FF1F585700006498FF1F64
:103980000B4B1B6813F4006310D01628094B09D1A8
:10399000094A4FF4407111605A7B42F008025A7391
:1039A000012070475A7B02F0F7025A7300207047DB
:1039B0003480044000B0064004B004400B4B1B6848
:1039C00013F4006310D01728094B09D1094A4FF4AA
:1039D000407111605A7B42F001025A730120704716
:1039E0005A7B02F0FE025A73002070473480044074
:1039F00000B0064008B00440F8B51D4B1B681A051E
:103A0000064633D51B4B1B680BB101221A701A4BAB
:103A10001C780134282C1F4628BF0024174D2B7812
:103A2000A34218D100F0ECFA40280FDC144A1379B5
:103A30001B06F3D52B7813490133282B28BF00230D
:103A4000C95CDBB2C9B2D1712B70E7E7FF28E5DDB5
:103A500000F08CFDE2E70B4BF6B21E550A4B01223B
:103A60001A70074BE4B2BC223C70DA70F8BD00BF9C
:103A7000348004406498FF1F6898FF1F6198FF1FFF
:103A800000B00640F897FF1FF697FF1F274B1B68F3
:103A90001A052DE9F04707468A4644D5244B1B6892
:103AA0000BB101221A703D4607EB0A039D4237D243
:103AB000DFF890801F4E98F8004096F8009001348F
:103AC000282C28BF00245FFA89F9A1451DD11A4B83
:103AD000BC22DA7000F094FA40280FDC164A137901
:103AE0001B060FD5337815490133282B28BF002337
:103AF000C95CDBB2C9B2D171337003E0FF2801DDCC
:103B000000F034FD33784B45E4D00C4B15F8012B15
:103B10001A550B4B0122E4B21A7088F80040C3E733
:103B2000054BBC22DA70BDE8F08700BF348004404A
:103B30006498FF1F6198FF1F00B00640F897FF1FB1
:103B4000F697FF1F6898FF1F08B5034B1B7813B14A
:103B500000F00CFDF9E708BDF697FF1F064A074B7A
:103B60001B781078DBB2C0B283422CBF273000F143
:103B7000FF30C01A704700BF6198FF1F6898FF1F91
:103B8000054B1878054B1B78C0B2DBB2984238BFA2
:103B90004030C01A704700BF6098FF1FF797FF1FA3
:103BA000094B0A4A19781378DBB2994208D00133DD
:103BB000402B28BF00230649C85CDBB21370704756
:103BC0004FF0FF30704700BF6098FF1FF797FF1F4F
:103BD0002098FF1F084B1A78084B1B78DBB29A42DB
:103BE00007D00133402B28BF0023054AD05CC0B268
:103BF00070474FF0FF3070476098FF1FF797FF1F27
:103C00002098FF1F0A4B1B681B050FD5094BDA785C
:103C100002F0CB02DA7040225A74DA7842F03402B1
:103C2000DA70054B1A78054BD2B21A70704700BF94
:103C30003480044000B00640F797FF1F6098FF1FD4
:103C400030B5304B1A7912F0300F23D072B69A7D0E
:103C500002F0FF0122B9DA7940225A7462B619E003
:103C600062B6294B29481A780478D2B2E4B21846D1
:103C7000244BDD79531C402B28BF0023A342EDB217
:103C800002D0234AD5541A464B1E13F0FF01EFD140
:103C9000D2B202701B4BD978C9B20C0620D51B7961
:103CA00018061DD51B4B1C4A1D781378EDB2DBB2EC
:103CB0001046AB420CD0134A0133282B1479174C11
:103CC00028BF0023E45CE4B2D471127D072AF0D946
:103CD000DBB203700B4B1A79120644BF7C22DA70F8
:103CE0004B060ED5074B1A7912F0400F194608D033
:103CF0000B4B00221A700B4B1B6803B11A703C234C
:103D0000CB7030BD00B006406098FF1FF797FF1FD3
:103D10002098FF1F6898FF1F6198FF1FF897FF1FEB
:103D2000F697FF1F6498FF1F044B054900221A6095
:103D30000A60044A106010221A60704714D00340D1
:103D400004D0034000D00340212810B518D80D4AF4
:103D500052F8303093F880423CB1012211B183F81F
:103D6000802010BD83F8002110BD02EBC000436825
:103D70001A6811B142F0030201E022F002021A6057
:103D800010BD00BF58570000212806D8044B53F837
:103D9000303093F80002C0B270470020704700BF77
:103DA00058570000212816D80B4A02EBC0030129FE
:103DB0005B6852F8302004D182F880124FF4A2726E
:103DC00008E0002082F8800211B94FF4807201E00F
:103DD00040F203121A6070475857000072B60B4B3E
:103DE0000B491A680B4B1B68096862B6490102D57A
:103DF000322A88BF0133C2F5BB4218213F32B2FBE1
:103E0000F1F24FF47A7000FB0320704718E000E0F5
:103E100004ED00E06C98FF1F38B50446FFF7DEFFA5
:103E2000054664B1FFF7DAFF401BB0F57A7F03D394
:103E3000013C04D005F57A7500F098FBF2E738BD37
:103E40001F4B4FF4000210B51A604FF080721A60D9
:103E50004FF000721A604FF080621A604FF00062FB
:103E60001A60184B184A194C00204BF6FF71186065
:103E70005960282313609360136193611362936206
:103E8000136393630822226004F580540434206095
:103E90006160A360236144F8042C04F5FE242060D3
:103EA0000B4801600B490B608B600B4B1A6000F0F4
:103EB00015F8FA20FFF7B0FFBDE81040FFF7A4BBEC
:103EC00008E100E0048003400C80034000800340D0
:103ED00008800B400C800B4000800B4010B5204B3D
:103EE0002048214960221A70E1225A701F4B204A53
:103EF0001C78204B082C01D1002402E00A2C03D1AD
:103F000038240460132005E00C2C0CBF34243C241E
:103F100004601220086014601860174B17491B7862
:103F2000174A03B101230B601360164B164A197828
:103F3000164B012901D880210BE0042901D88421E6
:103F400007E0082901D8852103E0102994BF8621C4
:103F50008721116019600E4B01221A7010BD00BF3D
:103F60000040074008B003400CB003400C8DFF1F19
:103F700008B00B400CB00B407198FF1F20B00340FD
:103F800020B00B400D8DFF1F24B0034024B00B4028
:103F90007098FF1F024B1A6801321A60704700BF09
:103FA0006C98FF1F08B50B4C2368580301D5FFF729
:103FB00075F82368590501D5FEF71CFF23681A051B
:103FC00001D5FFF73DFE2368DB04ECD5FEF742FC8C
:103FD000E9E700BF3480044008B5FFF7E3FFFFFFC7
:103FE000014B10221A807047002005407047FFFFE8
:103FF000024A13681844106018467047108DFF1F5E
:10400000EFF313839BB9EFF3108098B9EFF30583B7
:1040100023B10F2B04D9084A985C01E04FF480705B
:10402000EFF311833BB1834238BF184670474FF01E
:10403000FF30704718467047F0E300E070B5064661
:104040000D4600243319284619790A220023013429
:1040500000F098F9042C05D02B6828461B682E2107
:104060009847EFE7204670BD024B034A1A600022D2
:104070005A6070477498FF1F7058000010B50446CE
:1040800000F0E8FA204610BD04480549054A00231F
:1040900003708023437300F05DBB00BF7C98FF1F5B
:1040A0007D400000C08AFF1F10B50446006800F084
:1040B00091FB204610BD38B504460D46006801311D
:1040C00000F0DAFE10B184E82100012038BD436819
:1040D0008B4210B5044606D2FFF7EDFF20B1A3686E
:1040E0000BB922681370012010BDF8B504460F46C5
:1040F000154622B9036803B11A7000230BE011467C
:10410000FFF7E5FF064640B9206810B100F062FBFA
:10411000266000236360A36004E0A5602068394640
:1041200001F0AAF82046F8BD38B505460C4641B165
:10413000084601F0FFF8214602462846FFF7D5FF62
:1041400000E0A960284638BD13B50023044603608B
:104150004360836003730A22084601A9FFF73AFB14
:10416000204601A9FFF7E0FF204602B010BD83689A
:10417000994203D2006810B1405C7047002070473C
:10418000FFF7F5BF08B50368C9B21B68984708BDBB
:1041900008B50368C9B21B68984708BD08B503682D
:1041A000C9B21B68984708BD08B50368C9B21B6847
:1041B000984708BD08B50368C9B21B68984708BD91
:1041C00008B50368C9B21B68984708BD08B50368FD
:1041D000C9B21B68984708BD08B50368C9B21B6817
:1041E000984708BD4B0803F1377000F5D840B0FB85
:1041F000F1F0FEF7BDBB10B54B0803F1377000F5C9
:10420000D8401446B0FBF1F0FEF7B2FB2046BDE803
:104210001040FEF7F3BBFEF71BBC0846FEF74CBC94
:1042200008B50846FEF764FC003018BF012008BD41
:1042300008B50846FEF77EFC003018BF012008BD17
:10424000FEF762BDFEF79ABDFEF76EBDFEF740BDFC
:10425000FEF7ACBDFEF746BD08B50846FEF790FC7C
:10426000012008BD08B50846FEF78AFC012008BDFC
:1042700010B5084614461146FEF7CCFC204610BD8A
:1042800038B508460D4601F055F804462146284643
:10429000FEF7C0FC204638BD4B0803F1377000F52F
:1042A000D840B0FBF1F0FEF727B910B54B0803F189
:1042B000377000F5D8401446B0FBF1F0FEF71CF95A
:1042C0002046BDE81040FEF759B9FEF781B908460F
:1042D000FEF7AAB908B50846FEF7C2F9003018BFC4
:1042E000012008BD08B50846FEF7D8F9003018BF10
:1042F000012008BDFEF762BAFEF78ABAFEF76EBA71
:10430000FEF740BAFEF79CBAFEF746BA08B5084673
:10431000FEF7E2F9012008BD08B50846FEF7DCF912
:10432000012008BD10B5084614461146FEF71EFAD6
:10433000204610BD38B508460D4600F0FBFF044688
:1043400021462846FEF712FA204638BD044B0022CB
:104350001A714FF47A711A73024A99601A607047A1
:104360009098FF1F80580000044B00221A714FF4F0
:104370007A711A73024A99601A607047A098FF1FF9
:10438000D858000070B505468AB022B90368C9B292
:104390001B6898472CE0012A08BF0A2221B9302265
:1043A0008DF82520212413E02124B1FBF2F002FB3B
:1043B0001011C9B209290AAE94BF303137312644F1
:1043C000C9B206F8241C014610B1013CE4B2ECE786
:1043D00033B1013CE4B20AAB23442D2203F8242C70
:1043E0002B6801A95B6828462144C4F12202984742
:1043F0000AB070BD08B50368C9B21B68984708BD0C
:1044000008B50368C9B21B68984708BD08B50368BA
:10441000C9B21B68984708BD08B50368C9B21B68D4
:10442000984708BD4B0803F1377000F5D840B0FB42
:10443000F1F0FFF7EDB910B54B0803F1377000F557
:10444000D8401446B0FBF1F0FFF7E2F92046BDE892
:104450001040FFF723BAFFF74BBA0846FFF774BACC
:1044600008B50846FFF78CFA003018BF012008BDD8
:1044700008B50846FFF7A2FA003018BF012008BDB2
:10448000FFF77EBBFFF7A6BBFFF78ABBFFF75CBB5E
:10449000FFF7B8BBFFF762BB08B50846FFF7ACFAF9
:1044A000012008BD08B50846FFF7A6FA012008BD9F
:1044B00010B5084614461146FFF7E8FA204610BD2D
:1044C00038B508460D4600F035FF0446214628461B
:1044D000FFF7DCFA204638BD044B00221A714FF476
:1044E0007A711A73024A99601A607047B498FF1F74
:1044F0003059000000F066B9F8B5164B164D1A6831
:1045000042F080721A60154B1A6842F001021A607C
:10451000134B2E681C688CB1237A6BB123682F680B
:104520001B68204698472A68E188D21B120993B27B
:104530008A42A38088BFE3806469ECE72968094B5D
:10454000891B09098AB21A80074B1888814288BFE3
:104550001A80F8BDFCED00E0041000E0001000E05F
:10456000C898FF1FCE98FF1FCC98FF1F024B1A78E8
:1045700002B91A70704700BFD098FF1F10B5029C97
:10458000401AE41A4443521A94FBF2F0184410BD46
:1045900008B5034B01221A60024B1B68984708BDFF
:1045A0000C710340D898FF1F08B5034B01221A6015
:1045B000024B5B68984708BD1C710340D898FF1FE9
:1045C00008B5034B01221A60024B9B68984708BD4F
:1045D0002C710340D898FF1F08B5034B01221A60C5
:1045E000024BDB68984708BD3C710340D898FF1F19
:1045F000064B01221A6003F588333C331A6822F413
:1046000000021A60024B00221A70704700700340CB
:10461000D598FF1F8268002310B51360027B01212B
:10462000541102F01F0201FA02F2084941F8242055
:10463000074A41785354D15C31B90133042BFAD184
:10464000BDE81040FFF7D4BF10BD00BF80E100E01F
:10465000D198FF1F037810B504460BB1FFF7DAFFBE
:104660000023237010BDFFFF094BDA68824210B5AA
:104670000DD01A6812F4804F40F0804102D0D8600B
:10468000196110BD034C1C60D86019611A6010BD1F
:1046900000C0024001401F00164B1A6842F48052CD
:1046A0001A60154B154A1A60154ADA6002F1804209
:1046B0001A61144A1A60144B1B78DA0755BF134A63
:1046C000134A4FF410714FF4007113F0020F116090
:1046D0000CBF104910495B074FF4007254BF0F4BD9
:1046E0000F4B0A6054BF4FF410724FF400721A60FF
:1046F000704700BF3C80044000C0024001401F00E2
:104700000110003800001F80C498FF1F18B004403B
:1047100008C004401CB004400CC0044014B0044065
:1047200004C00440094B1A6842F480521A60084BD6
:10473000DB6803F0E0629B0105D520F4704300F4D0
:10474000704043EA10101043FFF78EBF3C800440D6
:1047500000C0024003460846194600F001B800BFF9
:1047600010B40C4613460146224602205DF8044B65
:1047700000F010BE70B50F4E0F4D761BB61007D06F
:10478000043D0024013455F8043F9847A642F9D16E
:104790000A4E0B4D761B01F03DF9B61008D0043DD2
:1047A0000024013455F8043F9847A642F9D170BD62
:1047B00070BD00BF205A0000205A0000445A00007B
:1047C000205A0000024B0146186800F00BB800BFE9
:1047D0004091FF1F024B0146186800F0A5BE00BFC4
:1047E0004091FF1F2DE9F04F01F10B05162D83B00D
:1047F000064627D935F0070527D4A94225D83046E3
:1048000000F036FBB5F5FC7F26D2C14F4FEAD50C40
:1048100007EBCC03DC689C4200F0D2816368E2685D
:10482000A16823F00303234430465D68CA6045F065
:10483000010591605D6000F01DFB0834204603B067
:10484000BDE8F08F1025A942D9D900240C232046B9
:10485000336003B0BDE8F08F5FEA552C00F08A802A
:10486000BCF1040F00F260814FEA951C0CF1380C8A
:104870004FEA4C01A64F07EB8101CC68A14205D15C
:104880000CE0002B7ADAE468A14207D0626822F0DB
:104890000302531B0F2BF4DD0CF1FF3C0CF1010C58
:1048A0009B4B3C6903F1080E744500F07E81616802
:1048B00021F003014A1B0F2A00F36481002AC3F888
:1048C00014E0C3F810E06ADAB1F5007F80F03A81B5
:1048D000C90803EBC1004FEAA1085A688168A160CA
:1048E0004FF0010909FA08F848EA0202E0605A604C
:1048F0008460CC604FEAAC030120984090425BD8C2
:10490000024206D12CF0030C400002420CF1040CD0
:10491000FAD007EBCC084446E146E3689C4207D155
:1049200045E1002A80F25681DB689C4200F03F811D
:10493000596821F003014A1B0F2AF2DD1C46D3F807
:104940000CC054F8088F591945F0010942F00105CF
:10495000C3F804903046C8F80CC0CCF808807961E0
:104960003961C1F80CE0C1F808E04D608A5000F0F0
:1049700081FA63E77E214FF03F0C7BE72244E36836
:104980005068A16840F00105CB60304699605560E1
:1049900000F070FA0834204603B0BDE8F08F2144DF
:1049A00030464B6843F001034B6000F063FA083473
:1049B000204603B0BDE8F08FBC68636823F00309AC
:1049C000A94504D3C5EB09030F2B00F39180514B8C
:1049D000514A19681368013305EB010A04EB090B0E
:1049E00000F061810AF5805A0AF10F0A2AF47F6A01
:1049F0002AF00F0A30465146019200F02BFCB0F12C
:104A0000FF3F8046019A00F00081834500F2FA8062
:104A1000DFF810C1DCF80030C3455344CCF8003057
:104A200000F04A8112683C4901321BBFCBEB080BF6
:104A30005B44C1F80080CCF8003018F0070300F0A8
:104A40001381C3F10802C3F5805390440833C24474
:104A5000CAF30B0ACAEB030A51463046CDF804C02C
:104A600000F0F8FB431CDDF804C000F03581C8EB12
:104A70000002524442F00102DCF80030C7F808801E
:104A80005344BC42C8F80420CCF80030DFF894A0AE
:104A900015D0B9F10F0F40F2EA806168A9F10C025C
:104AA00022F0070201F0010EA118052042EA0E0EC5
:104AB0000F2AC4F804E04860886000F21181174AA8
:104AC000BC6811688B4288BF1360154A11688B421D
:104AD00088BF1360626822F003029542C5EB0203AF
:104AE00001D80F2B04DC304600F0C4F90024A5E601
:104AF000621943F0010345F0010565603046BA6074
:104B0000536000F0B7F90834204603B0BDE8F08FD9
:104B10004491FF1F0C99FF1F5095FF1F0899FF1F1D
:104B20000499FF1F1099FF1FBCF1140F61D9BCF14C
:104B3000540F00F28F804FEA153C0CF16E0C4FEAD7
:104B40004C0197E64B0A042B58D9142B00F2AE8087
:104B500003F15B02500007EB8000DFF8BC81836843
:104B6000834200F08A805A6822F00302914202D206
:104B70009B689842F7D1D9687A68E160A3608C603D
:104B8000DC60B7E6611942F0010745F00105656098
:104B9000304659611961C1F80CE0C1F808E04F6076
:104BA0008A50083400F066F948E65A68A2E609F12E
:104BB000010919F0030F04F108047FF4AEAE2DE0F3
:104BC00004F108036469A34208BF0CF1020C3FF42E
:104BD00067AE23E619441C464868DB6854F8082F82
:104BE00040F001054D603046D3609A6000F042F914
:104BF00024E60CF15B0C4FEA4C013BE68A093832A3
:104C00005000A8E7BC423FF403AFBC68626822F0E2
:104C1000030262E7D8F8008098457BD11CF0030FAF
:104C2000A8F108030CF1FF3CF4D17B6823EA0003F0
:104C30007B60400098423FF6BFAE00283FF4BCAE18
:104C40000342CC467FF465AE400003420CF1040CF5
:104C5000FAD05EE6BCF5AA7F1AD84FEAD53C0CF133
:104C6000770C4FEA4C0105E64FF48053EFE6012341
:104C7000C8F80430444600222FE791100120D8F8EC
:104C8000042000FA01F10A43C8F80420194674E729
:104C900040F254539C451BD84FEA954C0CF17C0CC8
:104CA0004FEA4C01E6E50AF1100AA3E6542B1FD89F
:104CB0000A0B6E3250004EE7CBF30B0100297FF454
:104CC000B1AE0AEB0901BA6841F001015160F6E6A4
:104CD000FC214FF07E0CCDE501224FF0000ACBE61F
:104CE00004F10801304600F01FFCDAF80030E6E677
:104CF000B3F5AA7F03D8CA0B773250002BE740F2F6
:104D00005452934203D88A0C7C32500023E7FC2093
:104D10007E2220E77B688CE74491FF1F8842F0B435
:104D200010D98C18A0420DD28518531E42B12146CD
:104D30002A4611F8014D02F8014D013B5C1CF8D1E7
:104D4000F0BC70470F2A3FD940EA01039B073FD1CF
:104D5000A2F110073F0900EB071610360C46034678
:104D600025681D6065685D60A5689D60E568DD601B
:104D70001033B34204F11004F2D17B1C02F00F0C8B
:104D80001B01BCF1030F1944034423D90E461D46F1
:104D90006446043C56F8047B45F8047B032CF8D8A1
:104DA000ACF1040424F00304043402F003022344AD
:104DB0002144002AC4D01A4411F8014B03F8014BD6
:104DC0009342F9D1F0BC70470346002AF3D1B7E70C
:104DD0000346F0E76246002AEDD1B1E7F0B484075C
:104DE00043D0541E002A3ED0CDB2034603E0621EDB
:104DF000002C38D0144603F8015B9A07F7D1032C36
:104E00002AD9CDB245EA05250F2C45EA054515D925
:104E1000A4F110073F0903F1100606EB07161A4626
:104E2000156055609560D5601032B242F8D104F03B
:104E30000F040137032C03EB07130DD91E4622463E
:104E4000043A032A46F8045BFAD8221F22F0030230
:104E50000432134404F003042CB1C9B21C4403F817
:104E6000011BA342FBD1F0BC704714460346C6E7C2
:104E7000704700BF704700BF024B0A4601461868E2
:104E800000F002B84091FF1F2DE9F04F0C4683B0AF
:104E900090468146002900F0E280FFF7E9FF08F123
:104EA0000B0654F8043C162E23F00305A4F1080762
:104EB0004BD810210E46B0454CD88D4278DADFF839
:104EC00090B3DBF808E07819864500F0CE804268A0
:104ED00022F0010C8444DCF804C01CF0010F7AD0ED
:104EE00000221046DB0700F1928054F8083CC3EB27
:104EF000070ADAF8043023F003032B4488B3704523
:104F000000F0ED8002EB030E8E452ADBC368826859
:104F10005746D3609A6057F8081FDAF80C30CB6018
:104F20002A1F242A996000F22681132A40F2B380B6
:104F30002368CAF808306368CAF80C301B2A00F2EC
:104F4000308108340AF11003A6E026F00706002E8F
:104F50003146B0DA0C230020C9F8003003B0BDE8B8
:104F6000F08F8B4253DB5746DAF80C1057F8080FD6
:104F70002A1F242AC160886000F20981132A40F2A6
:104F800004812168CAF808106168CAF80C101B2A4D
:104F900000F21C8108340AF1100221681160616876
:104FA0005160A16891601D46DAF804303C465746CE
:104FB000AA1B0F2A03F0010319D82B433D447B6041
:104FC0006B6843F001036B604846FFF753FF2046D0
:104FD00003B0BDE8F08F22F0030202EB050C8C4514
:104FE00080DBC26881686546CA609160E0E7B919F4
:104FF00042F001001E430A447E604860536843F05B
:10500000010308315360484600F08EFADCE7414660
:105010004846FFF7E7FB8046D0B154F8043C23F044
:1050200001023A44A0F10801914200F09E802A1F3B
:10503000242A50D8132A23D803462246116819601F
:105040005168596092689A602146484600F06CFAAF
:105050004846FFF70FFF404603B0BDE8F08F11460A
:1050600003B0BDE8F04FFFF7BDBBDEF8042022F02F
:105070000302501906F1100C604519DA704631E749
:1050800023680360636843601B2A63D800F1080348
:1050900004F10802D2E73B4622681A6062685A604F
:1050A000A2689A603C467546DAF8043057467FE7B6
:1050B0003744831B43F00103CBF808707B6054F83E
:1050C000043C03F001031E43484644F8046CFFF718
:1050D000D1FE20467CE72146FFF720FEB4E702EB35
:1050E000030C06F110029445FFF63BAF5746DAF881
:1050F0000C3057F8081F2A1F242ACB60996000F251
:105100008780132A78D92368CAF808306368CAF8F8
:105110000C301B2A00F2858008340AF11003226843
:105120001A6062685A60A2689A600AEB0603C6EBCE
:105130000C0242F00102CBF808305A60DAF8043071
:1051400003F001031E434846CAF80460FFF792FECD
:1051500038463DE7A3688360E368C360242A2CD007
:1051600000F1100304F1100268E750F8042C22F05B
:10517000030215441CE72146384675463C46FFF7B6
:10518000CDFD5746DAF8043012E73A4605E72146E6
:1051900038461D463C46FFF7C1FD5746DAF8043055
:1051A00006E7A368CAF81030E368CAF81430242A66
:1051B00018D010340AF118036EE72369036163699C
:1051C000436104F1180200F1180337E7A168CAF837
:1051D0001010E168CAF81410242A0FD010340AF114
:1051E0001802DAE62369CAF818306369CAF81C3075
:1051F00018340AF120034FE73B4690E72269CAF8CA
:1052000018206269CAF81C2018340AF12002C4E68A
:1052100021463846CDF804C0FFF780FDDDF804C014
:1052200083E7A368CAF81030E368CAF81430242A68
:1052300003D010340AF1180371E72369CAF8183053
:105240006369CAF81C3018340AF1200367E700BF0D
:105250004491FF1F38B5074C0023054608462360DC
:10526000FEF7C6FE431C00D038BD2368002BFBD0E0
:105270002B6038BD5C99FF1F80EA0102844612F062
:10528000030F4FD111F0030F32D14DF8044D11F03F
:10529000040F51F8043B0BD0A3F101329A4312F0F2
:1052A000803F04BF4CF8043B51F8043B16D100BFCB
:1052B00051F8044BA3F101329A4312F0803FA4F15C
:1052C00001320BD14CF8043BA24312F0803F04BFE3
:1052D00051F8043B4CF8044BEAD023460CF8013B50
:1052E00013F0FF0F4FEA3323F8D15DF8044B7047FA
:1052F00011F0010F06D011F8012B0CF8012B002A38
:1053000008BF704711F0020FBFD031F8022B12F026
:10531000FF0F16BF2CF8022B8CF8002012F47F4FE1
:10532000B3D1704711F8012B0CF8012B002AF9D1E9
:10533000704700BF20F0030110F00300C0F100002F
:1053400051F8043B00F1040C4FEACC0C6FF0000262
:105350001CBF22FA0CF213434FF0010C4CEA0C2C48
:105360004CEA0C4CA3EB0C0222EA030212EACC1228
:1053700004BF51F8043B0430F4D013F0FF0F1FBFFB
:10538000013013F47F4F013013F47F0F18BF013049
:10539000704700BFF0B5274C2668D6F8484185B065
:1053A0000746002C41D065681F2D1EDD224818B924
:1053B0004FF0FF3005B0F0BD4FF4C870039102927A
:1053C0000193FFF7FFF90399029A019B0446002815
:1053D000EED0D6F848512560002060600546C6F83A
:1053E0004841C4F88801C4F88C013FB9AB1C0020C7
:1053F0000135656044F8231005B0F0BD04EB85006D
:105400004FF0010CC0F88820D4F888610CFA05F23E
:105410001643022FC4F88861C0F80831E6D1D4F8E9
:105420008C311A43C4F88C21E0E706F5A674C6F85F
:105430004841B8E7105A0000C5470000024B13B1BD
:10544000024800F005B87047000000005D540000FD
:105450000146002002460346FFF79CBF38B5094DC0
:10546000094C641BA41018BF05EB840505D0013C52
:1054700055F8043D9847002CF9D1BDE8384000F0BC
:10548000E1BA00BF0000000000000000F8B5234DA5
:105490000F460446FFF7ECFCAB685E6826F0030697
:1054A000F11B01F6EF7121F47F6121F00F01A1F5ED
:1054B0008057B7F5805F07DB20460021FFF7CAFE63
:1054C000AB683344984204D02046FFF7D3FC002059
:1054D000F8BD20467942FFF7BDFE01300DD0104BDC
:1054E000AA681968F61B46F001062046C91B5660DB
:1054F0001960FFF7BFFC0120F8BD20460021FFF72F
:10550000A9FEAB68C21A0F2ADEDD064D04492D68DC
:1055100042F00102401B5A600860D5E74491FF1F2A
:105520001099FF1F5095FF1F2DE9F0410D460646CB
:10553000002955D0FFF79CFC55F8041CDFF874C116
:1055400021F00103A5F10804E218DCF8080057680F
:10555000904227F0030769D011F00101576032D063
:105560000021D0194068C00706D43B449068002948
:105570004ED0D268C260906043F001026260E35096
:10558000E1B9B3F5007F2DD35A0A042A6AD89809E5
:10559000383041000CEB810C4649DCF808206245AC
:1055A00066D0516821F003018B4202D29268944583
:1055B000F7D1D368E360A2609C60D4603046BDE858
:1055C000F041FFF757BC55F8085C641B0CF1080864
:1055D000A06840452B4443D0E568C560A860C0E79B
:1055E000BDE8F081DB080CEBC3020125DCF8040008
:1055F0009168A1609B1005FA03F31843E260CCF8B0
:10560000040094603046CC60BDE8F041FFF732BC46
:10561000294DA842ADD143F00102CCF81440CCF89A
:105620001040E060A0606260E350C7E71F44CB0712
:1056300007D455F8083CE41A1F44A268E368D36015
:105640009A601E4B1B6847F001029F426260CCF8D3
:105650000840B3D31A4B30461968FFF717FFADE780
:1056600001217EE7142A0CD802F15B00410091E78A
:105670004B688010012505FA00F003434B60134688
:1056800098E7542A03D8180B6E30410082E7B2F530
:10569000AA7F03D8D80B773041007BE740F2545102
:1056A0008A4203D8980C7C30410073E7FC217E20AD
:1056B00070E700BF4491FF1F4C91FF1F4C95FF1FE7
:1056C0000C99FF1F0006FF02FFFFFF0402FF00FF0F
:1056D000FFFF04FFFFFFFFFFFFFF061D15FFFFFF9A
:1056E00000010000D48BFF1F120000000002000028
:1056F000168CFF1F29000000002200003F8CFF1FB6
:105700008F00000000210000288CFF1F090000000E
:1057100000030000EE8CFF1F0000000001030904DD
:10572000068CFF1F0000000002030904CE8CFF1F3F
:105730000000000003030904F28CFF1F00000000BA
:1057400004030904E68BFF1F0000000000000000B6
:1057500000000000000000004008FE4340A004409C
:105760004408FE4344A004400018FE4300C0044027
:105770003000FE43309004403400FE433490044037
:105780001C18FE431CC004401018FE4310C0044007
:105790000818FE4308C004400C18FE430CC0044027
:1057A0000C10FE430CB004401010FE4310B0044037
:1057B0001810FE4318B004401C10FE431CB00440F7
:1057C0001410FE4314B004400418FE4304C0044007
:1057D0000010FE4300B004400008FE4300A0044057
:1057E0000408FE4304A004400C08FE430CA004403F
:1057F0000808FE4308A004401418FE4314C00440E7
:105800001818FE4318C004400410FE4304B00440BE
:105810000810FE4308B004401400FE4314900440F6
:105820004C08FE434CA004400420FE4304D0044036
:105830002410FE4324B004402010FE4320B0044056
:105840002810FE4328B004402C10FE432CB0044026
:105850000020FE4300D004404808FE4348A0044016
:105860001000FE4310900440000000000000000003
:105870003D400000000000000000000000000000AB
:105880000D43000025430000F5420000FD420000EA
:10589000F94200000143000099420000AB420000C1
:1058A000CB420000CF420000D5420000E54200009C
:1058B0000543000009430000B5410000C14100005C
:1058C000CD410000D94100003543000019430000DC
:1058D000000000000000000059420000714200007A
:1058E0004142000049420000454200004D42000094
:1058F000E5410000F7410000174200001B42000094
:105900002142000031420000514200005542000097
:1059100085410000914100009D410000A941000027
:10592000814200006542000000000000000000000D
:1059300099440000B1440000814400008944000003
:10594000854400008D4400002544000037440000D9
:10595000574400005B4400006144000071440000B3
:105960009144000095440000F5430000014400000C
:105970000D44000019440000C1440000A54400008B
:105980000200030004000500060008000A000C00E5
:1059900010001400180020002800380040006000AB
:1059A0008000C00000018001000280020003FFFFB0
:1059B0000000008000000180000000000000028064
:1059C00000000100011000000000020001100100B1
:1059D0000320000001000200032001000430000049
:1059E00003200200032003000540000005400100E1
:1059F000065000000650010007600000076001002B
:105A000008700000076002000870010043000000F9
:105A1000188DFF1FF8B500BFF8BC08BC9E46704744
:105A20003D54000035040000A51F0000892400003B
:105A300069400000894000004D43000069430000B8
:045A4000D944000045
:045A4400F8B500BFF2
:105A480000000000FF005EBCE2613FDD83C29C7E77
:105A580020A3FD1F419DC3217FFCA2401E5F01E3DF
:105A6800BD3E6082DC237D9FC1421CFEA0E1BF5D7C
:105A78000380DE3C62BEE0025CDF81633D7C22C0C5
:105A88009E1D43A1FF4618FAA427799BC584DA38DE
:105A980066E5BB5907DB856739BAE406581947A597
:105AA800FB7826C49A653BD987045AB8E6A7F91B40
:105AB80045C6987A24F8A6441A99C7257B3A64867D
:105AC800D85B05E7B98CD2306EEDB3510F4E10F2AA
